{
  "_format": "hh-sol-artifact-1",
  "contractName": "MillionBotHomepage",
  "sourceName": "contracts/MillionBotHomepage.sol",
  "abi": [
    {
      "inputs": [
        {
          "internalType": "address",
          "name": "_usdc",
          "type": "address"
        }
      ],
      "stateMutability": "nonpayable",
      "type": "constructor"
    },
    {
      "inputs": [
        {
          "internalType": "address",
          "name": "sender",
          "type": "address"
        },
        {
          "internalType": "uint256",
          "name": "tokenId",
          "type": "uint256"
        },
        {
          "internalType": "address",
          "name": "owner",
          "type": "address"
        }
      ],
      "name": "ERC721IncorrectOwner",
      "type": "error"
    },
    {
      "inputs": [
        {
          "internalType": "address",
          "name": "operator",
          "type": "address"
        },
        {
          "internalType": "uint256",
          "name": "tokenId",
          "type": "uint256"
        }
      ],
      "name": "ERC721InsufficientApproval",
      "type": "error"
    },
    {
      "inputs": [
        {
          "internalType": "address",
          "name": "approver",
          "type": "address"
        }
      ],
      "name": "ERC721InvalidApprover",
      "type": "error"
    },
    {
      "inputs": [
        {
          "internalType": "address",
          "name": "operator",
          "type": "address"
        }
      ],
      "name": "ERC721InvalidOperator",
      "type": "error"
    },
    {
      "inputs": [
        {
          "internalType": "address",
          "name": "owner",
          "type": "address"
        }
      ],
      "name": "ERC721InvalidOwner",
      "type": "error"
    },
    {
      "inputs": [
        {
          "internalType": "address",
          "name": "receiver",
          "type": "address"
        }
      ],
      "name": "ERC721InvalidReceiver",
      "type": "error"
    },
    {
      "inputs": [
        {
          "internalType": "address",
          "name": "sender",
          "type": "address"
        }
      ],
      "name": "ERC721InvalidSender",
      "type": "error"
    },
    {
      "inputs": [
        {
          "internalType": "uint256",
          "name": "tokenId",
          "type": "uint256"
        }
      ],
      "name": "ERC721NonexistentToken",
      "type": "error"
    },
    {
      "inputs": [
        {
          "internalType": "address",
          "name": "owner",
          "type": "address"
        }
      ],
      "name": "OwnableInvalidOwner",
      "type": "error"
    },
    {
      "inputs": [
        {
          "internalType": "address",
          "name": "account",
          "type": "address"
        }
      ],
      "name": "OwnableUnauthorizedAccount",
      "type": "error"
    },
    {
      "anonymous": false,
      "inputs": [
        {
          "indexed": true,
          "internalType": "address",
          "name": "owner",
          "type": "address"
        },
        {
          "indexed": true,
          "internalType": "address",
          "name": "approved",
          "type": "address"
        },
        {
          "indexed": true,
          "internalType": "uint256",
          "name": "tokenId",
          "type": "uint256"
        }
      ],
      "name": "Approval",
      "type": "event"
    },
    {
      "anonymous": false,
      "inputs": [
        {
          "indexed": true,
          "internalType": "address",
          "name": "owner",
          "type": "address"
        },
        {
          "indexed": true,
          "internalType": "address",
          "name": "operator",
          "type": "address"
        },
        {
          "indexed": false,
          "internalType": "bool",
          "name": "approved",
          "type": "bool"
        }
      ],
      "name": "ApprovalForAll",
      "type": "event"
    },
    {
      "anonymous": false,
      "inputs": [
        {
          "indexed": true,
          "internalType": "address",
          "name": "previousOwner",
          "type": "address"
        },
        {
          "indexed": true,
          "internalType": "address",
          "name": "newOwner",
          "type": "address"
        }
      ],
      "name": "OwnershipTransferred",
      "type": "event"
    },
    {
      "anonymous": false,
      "inputs": [
        {
          "indexed": true,
          "internalType": "uint256",
          "name": "tokenId",
          "type": "uint256"
        },
        {
          "indexed": true,
          "internalType": "address",
          "name": "owner",
          "type": "address"
        },
        {
          "indexed": false,
          "internalType": "uint256",
          "name": "price",
          "type": "uint256"
        }
      ],
      "name": "TileClaimed",
      "type": "event"
    },
    {
      "anonymous": false,
      "inputs": [
        {
          "indexed": true,
          "internalType": "uint256",
          "name": "tokenId",
          "type": "uint256"
        },
        {
          "indexed": false,
          "internalType": "string",
          "name": "uri",
          "type": "string"
        }
      ],
      "name": "TileMetadataUpdated",
      "type": "event"
    },
    {
      "anonymous": false,
      "inputs": [
        {
          "indexed": true,
          "internalType": "address",
          "name": "from",
          "type": "address"
        },
        {
          "indexed": true,
          "internalType": "address",
          "name": "to",
          "type": "address"
        },
        {
          "indexed": true,
          "internalType": "uint256",
          "name": "tokenId",
          "type": "uint256"
        }
      ],
      "name": "Transfer",
      "type": "event"
    },
    {
      "inputs": [],
      "name": "GRID_SIZE",
      "outputs": [
        {
          "internalType": "uint256",
          "name": "",
          "type": "uint256"
        }
      ],
      "stateMutability": "view",
      "type": "function"
    },
    {
      "inputs": [],
      "name": "MAX_SUPPLY",
      "outputs": [
        {
          "internalType": "uint256",
          "name": "",
          "type": "uint256"
        }
      ],
      "stateMutability": "view",
      "type": "function"
    },
    {
      "inputs": [
        {
          "internalType": "address",
          "name": "to",
          "type": "address"
        },
        {
          "internalType": "uint256",
          "name": "tokenId",
          "type": "uint256"
        }
      ],
      "name": "approve",
      "outputs": [],
      "stateMutability": "nonpayable",
      "type": "function"
    },
    {
      "inputs": [
        {
          "internalType": "address",
          "name": "owner",
          "type": "address"
        }
      ],
      "name": "balanceOf",
      "outputs": [
        {
          "internalType": "uint256",
          "name": "",
          "type": "uint256"
        }
      ],
      "stateMutability": "view",
      "type": "function"
    },
    {
      "inputs": [],
      "name": "baseMetadataURI",
      "outputs": [
        {
          "internalType": "string",
          "name": "",
          "type": "string"
        }
      ],
      "stateMutability": "view",
      "type": "function"
    },
    {
      "inputs": [
        {
          "internalType": "uint256[]",
          "name": "tokenIds",
          "type": "uint256[]"
        }
      ],
      "name": "batchClaim",
      "outputs": [],
      "stateMutability": "nonpayable",
      "type": "function"
    },
    {
      "inputs": [
        {
          "internalType": "uint256",
          "name": "tokenId",
          "type": "uint256"
        }
      ],
      "name": "claim",
      "outputs": [],
      "stateMutability": "nonpayable",
      "type": "function"
    },
    {
      "inputs": [],
      "name": "currentPrice",
      "outputs": [
        {
          "internalType": "uint256",
          "name": "",
          "type": "uint256"
        }
      ],
      "stateMutability": "view",
      "type": "function"
    },
    {
      "inputs": [
        {
          "internalType": "uint256",
          "name": "tokenId",
          "type": "uint256"
        }
      ],
      "name": "getApproved",
      "outputs": [
        {
          "internalType": "address",
          "name": "",
          "type": "address"
        }
      ],
      "stateMutability": "view",
      "type": "function"
    },
    {
      "inputs": [
        {
          "internalType": "address",
          "name": "owner",
          "type": "address"
        },
        {
          "internalType": "address",
          "name": "operator",
          "type": "address"
        }
      ],
      "name": "isApprovedForAll",
      "outputs": [
        {
          "internalType": "bool",
          "name": "",
          "type": "bool"
        }
      ],
      "stateMutability": "view",
      "type": "function"
    },
    {
      "inputs": [],
      "name": "name",
      "outputs": [
        {
          "internalType": "string",
          "name": "",
          "type": "string"
        }
      ],
      "stateMutability": "view",
      "type": "function"
    },
    {
      "inputs": [],
      "name": "owner",
      "outputs": [
        {
          "internalType": "address",
          "name": "",
          "type": "address"
        }
      ],
      "stateMutability": "view",
      "type": "function"
    },
    {
      "inputs": [
        {
          "internalType": "uint256",
          "name": "tokenId",
          "type": "uint256"
        }
      ],
      "name": "ownerOf",
      "outputs": [
        {
          "internalType": "address",
          "name": "",
          "type": "address"
        }
      ],
      "stateMutability": "view",
      "type": "function"
    },
    {
      "inputs": [
        {
          "internalType": "uint256",
          "name": "mintNumber",
          "type": "uint256"
        }
      ],
      "name": "priceAtMint",
      "outputs": [
        {
          "internalType": "uint256",
          "name": "",
          "type": "uint256"
        }
      ],
      "stateMutability": "pure",
      "type": "function"
    },
    {
      "inputs": [],
      "name": "renounceOwnership",
      "outputs": [],
      "stateMutability": "nonpayable",
      "type": "function"
    },
    {
      "inputs": [
        {
          "internalType": "address",
          "name": "from",
          "type": "address"
        },
        {
          "internalType": "address",
          "name": "to",
          "type": "address"
        },
        {
          "internalType": "uint256",
          "name": "tokenId",
          "type": "uint256"
        }
      ],
      "name": "safeTransferFrom",
      "outputs": [],
      "stateMutability": "nonpayable",
      "type": "function"
    },
    {
      "inputs": [
        {
          "internalType": "address",
          "name": "from",
          "type": "address"
        },
        {
          "internalType": "address",
          "name": "to",
          "type": "address"
        },
        {
          "internalType": "uint256",
          "name": "tokenId",
          "type": "uint256"
        },
        {
          "internalType": "bytes",
          "name": "data",
          "type": "bytes"
        }
      ],
      "name": "safeTransferFrom",
      "outputs": [],
      "stateMutability": "nonpayable",
      "type": "function"
    },
    {
      "inputs": [
        {
          "internalType": "address",
          "name": "operator",
          "type": "address"
        },
        {
          "internalType": "bool",
          "name": "approved",
          "type": "bool"
        }
      ],
      "name": "setApprovalForAll",
      "outputs": [],
      "stateMutability": "nonpayable",
      "type": "function"
    },
    {
      "inputs": [
        {
          "internalType": "string",
          "name": "uri",
          "type": "string"
        }
      ],
      "name": "setBaseMetadataURI",
      "outputs": [],
      "stateMutability": "nonpayable",
      "type": "function"
    },
    {
      "inputs": [
        {
          "internalType": "uint256",
          "name": "tokenId",
          "type": "uint256"
        },
        {
          "internalType": "string",
          "name": "uri",
          "type": "string"
        }
      ],
      "name": "setTileURI",
      "outputs": [],
      "stateMutability": "nonpayable",
      "type": "function"
    },
    {
      "inputs": [
        {
          "internalType": "bytes4",
          "name": "interfaceId",
          "type": "bytes4"
        }
      ],
      "name": "supportsInterface",
      "outputs": [
        {
          "internalType": "bool",
          "name": "",
          "type": "bool"
        }
      ],
      "stateMutability": "view",
      "type": "function"
    },
    {
      "inputs": [],
      "name": "symbol",
      "outputs": [
        {
          "internalType": "string",
          "name": "",
          "type": "string"
        }
      ],
      "stateMutability": "view",
      "type": "function"
    },
    {
      "inputs": [
        {
          "internalType": "uint256",
          "name": "tokenId",
          "type": "uint256"
        }
      ],
      "name": "tilePosition",
      "outputs": [
        {
          "internalType": "uint256",
          "name": "row",
          "type": "uint256"
        },
        {
          "internalType": "uint256",
          "name": "col",
          "type": "uint256"
        }
      ],
      "stateMutability": "pure",
      "type": "function"
    },
    {
      "inputs": [
        {
          "internalType": "uint256",
          "name": "tokenId",
          "type": "uint256"
        }
      ],
      "name": "tokenURI",
      "outputs": [
        {
          "internalType": "string",
          "name": "",
          "type": "string"
        }
      ],
      "stateMutability": "view",
      "type": "function"
    },
    {
      "inputs": [],
      "name": "totalMinted",
      "outputs": [
        {
          "internalType": "uint256",
          "name": "",
          "type": "uint256"
        }
      ],
      "stateMutability": "view",
      "type": "function"
    },
    {
      "inputs": [
        {
          "internalType": "address",
          "name": "from",
          "type": "address"
        },
        {
          "internalType": "address",
          "name": "to",
          "type": "address"
        },
        {
          "internalType": "uint256",
          "name": "tokenId",
          "type": "uint256"
        }
      ],
      "name": "transferFrom",
      "outputs": [],
      "stateMutability": "nonpayable",
      "type": "function"
    },
    {
      "inputs": [
        {
          "internalType": "address",
          "name": "newOwner",
          "type": "address"
        }
      ],
      "name": "transferOwnership",
      "outputs": [],
      "stateMutability": "nonpayable",
      "type": "function"
    },
    {
      "inputs": [],
      "name": "usdc",
      "outputs": [
        {
          "internalType": "contract IERC20",
          "name": "",
          "type": "address"
        }
      ],
      "stateMutability": "view",
      "type": "function"
    },
    {
      "inputs": [],
      "name": "withdraw",
      "outputs": [],
      "stateMutability": "nonpayable",
      "type": "function"
    }
  ],
  "bytecode": "0x60a060405234801561000f575f5ffd5b5060405161230438038061230483398101604081905261002e9161012e565b33604051806040016040528060128152602001714d696c6c696f6e426f74486f6d657061676560701b8152506040518060400160405280600481526020016304d4248560e41b815250815f908161008591906101f3565b50600161009282826101f3565b5050506001600160a01b0381166100c257604051631e4fbdf760e01b81525f600482015260240160405180910390fd5b6100cb816100dd565b506001600160a01b03166080526102ad565b600680546001600160a01b038381166001600160a01b0319831681179093556040519116919082907f8be0079c531659141344cd1fd0a4f28419497f9722a3daafe3b4186f6b6457e0905f90a35050565b5f6020828403121561013e575f5ffd5b81516001600160a01b0381168114610154575f5ffd5b9392505050565b634e487b7160e01b5f52604160045260245ffd5b600181811c9082168061018357607f821691505b6020821081036101a157634e487b7160e01b5f52602260045260245ffd5b50919050565b601f8211156101ee57805f5260205f20601f840160051c810160208510156101cc5750805b601f840160051c820191505b818110156101eb575f81556001016101d8565b50505b505050565b81516001600160401b0381111561020c5761020c61015b565b6102208161021a845461016f565b846101a7565b6020601f821160018114610252575f831561023b5750848201515b5f19600385901b1c1916600184901b1784556101eb565b5f84815260208120601f198516915b828110156102815787850151825560209485019460019092019101610261565b508482101561029e57868401515f19600387901b60f8161c191681555b50505050600190811b01905550565b6080516120236102e15f395f81816102b8015281816106aa015281816107d70152818161084c0152610c3c01526120235ff3fe608060405234801561000f575f5ffd5b50600436106101c6575f3560e01c8063715018a6116100fe578063a22cb4651161009e578063c87b56dd1161006e578063c87b56dd146103b5578063d0cdba99146103c8578063e985e9c5146103db578063f2fde38b146103ee575f5ffd5b8063a22cb46514610373578063a2309ff814610386578063b88d4fde1461038f578063bc292782146103a2575f5ffd5b80638c4a24f4116100d95780638c4a24f41461033f5780638da5cb5b1461035257806395d89b41146103635780639d1b464a1461036b575f5ffd5b8063715018a61461031b5780637e518ec8146103235780637fc4eda814610336575f5ffd5b8063379607f51161016957806342842e0e1161014457806342842e0e146102da5780635b2bd79e146102ed5780636352211e146102f557806370a0823114610308575f5ffd5b8063379607f5146102985780633ccfd60b146102ab5780633e413bee146102b3575f5ffd5b8063095ea7b3116101a4578063095ea7b31461023257806322053fad1461024757806323b872dd1461026f57806332cb6b0c14610282575f5ffd5b806301ffc9a7146101ca57806306fdde03146101f2578063081812fc14610207575b5f5ffd5b6101dd6101d83660046118c5565b610401565b60405190151581526020015b60405180910390f35b6101fa610452565b6040516101e9919061190e565b61021a610215366004611920565b6104e1565b6040516001600160a01b0390911681526020016101e9565b61024561024036600461194b565b610508565b005b61025a610255366004611920565b610517565b604080519283526020830191909152016101e9565b61024561027d366004611975565b61056d565b61028a6105f6565b6040519081526020016101e9565b6102456102a6366004611920565b610605565b6102456107b8565b61021a7f000000000000000000000000000000000000000000000000000000000000000081565b6102456102e8366004611975565b61093a565b6101fa610959565b61021a610303366004611920565b6109e5565b61028a6103163660046119b3565b6109ef565b610245610a34565b610245610331366004611a13565b610a47565b61028a61010081565b61028a61034d366004611920565b610a5c565b6006546001600160a01b031661021a565b6101fa610acf565b61028a610ade565b610245610381366004611a5f565b610b05565b61028a60075481565b61024561039d366004611aaa565b610b10565b6102456103b0366004611b8b565b610b28565b6101fa6103c3366004611920565b610db4565b6102456103d6366004611bfc565b610eda565b6101dd6103e9366004611c44565b610f83565b6102456103fc3660046119b3565b610fb0565b5f6001600160e01b031982166380ac58cd60e01b148061043157506001600160e01b03198216635b5e139f60e01b145b8061044c57506301ffc9a760e01b6001600160e01b03198316145b92915050565b60605f805461046090611c70565b80601f016020809104026020016040519081016040528092919081815260200182805461048c90611c70565b80156104d75780601f106104ae576101008083540402835291602001916104d7565b820191905f5260205f20905b8154815290600101906020018083116104ba57829003601f168201915b5050505050905090565b5f6104eb82610fea565b505f828152600460205260409020546001600160a01b031661044c565b610513828233611022565b5050565b5f8061052561010080611cbc565b831061054c5760405162461bcd60e51b815260040161054390611cd3565b60405180910390fd5b61055861010084611d10565b915061056661010084611d23565b9050915091565b6001600160a01b03821661059657604051633250574960e11b81525f6004820152602401610543565b5f6105a283833361102f565b9050836001600160a01b0316816001600160a01b0316146105f0576040516364283d7b60e01b81526001600160a01b0380861660048301526024820184905282166044820152606401610543565b50505050565b61060261010080611cbc565b81565b61061161010080611cbc565b811061062f5760405162461bcd60e51b815260040161054390611cd3565b61063881611121565b1561067c5760405162461bcd60e51b8152602060048201526014602482015273151a5b1948185b1c9958591e4818db185a5b595960621b6044820152606401610543565b5f610685610ade565b6040516323b872dd60e01b8152336004820152306024820152604481018290529091507f00000000000000000000000000000000000000000000000000000000000000006001600160a01b0316906323b872dd906064016020604051808303815f875af11580156106f8573d5f5f3e3d5ffd5b505050506040513d601f19601f8201168201806040525081019061071c9190611d36565b61075f5760405162461bcd60e51b81526020600482015260146024820152731554d110c81d1c985b9cd9995c8819985a5b195960621b6044820152606401610543565b610769338361118f565b60078054905f61077883611d51565b9091555050604051818152339083907fb32a9a7450ff6ca778bf059b850af1be66768f645902c8754dc45e59976a21789060200160405180910390a35050565b6107c06111f0565b6040516370a0823160e01b81523060048201525f907f00000000000000000000000000000000000000000000000000000000000000006001600160a01b0316906370a0823190602401602060405180830381865afa158015610824573d5f5f3e3d5ffd5b505050506040513d601f19601f820116820180604052508101906108489190611d69565b90507f00000000000000000000000000000000000000000000000000000000000000006001600160a01b031663a9059cbb61088b6006546001600160a01b031690565b6040516001600160e01b031960e084901b1681526001600160a01b039091166004820152602481018490526044016020604051808303815f875af11580156108d5573d5f5f3e3d5ffd5b505050506040513d601f19601f820116820180604052508101906108f99190611d36565b6109375760405162461bcd60e51b815260206004820152600f60248201526e15da5d1a191c985dc819985a5b1959608a1b6044820152606401610543565b50565b61095483838360405180602001604052805f815250610b10565b505050565b6008805461096690611c70565b80601f016020809104026020016040519081016040528092919081815260200182805461099290611c70565b80156109dd5780601f106109b4576101008083540402835291602001916109dd565b820191905f5260205f20905b8154815290600101906020018083116109c057829003601f168201915b505050505081565b5f61044c82610fea565b5f6001600160a01b038216610a19576040516322718ad960e21b81525f6004820152602401610543565b506001600160a01b03165f9081526003602052604090205490565b610a3c6111f0565b610a455f61121d565b565b610a4f6111f0565b6008610954828483611dc4565b5f610a6961010080611cbc565b8210610aac5760405162461bcd60e51b815260206004820152601260248201527145786365656473206d617820737570706c7960701b6044820152606401610543565b5f610abd836581474de4f526611cbc565b9050610ac88161126e565b9392505050565b60606001805461046090611c70565b5f5f6007546581474de4f526610af49190611cbc565b9050610aff8161126e565b91505090565b6105133383836113f3565b610b1b84848461056d565b6105f033858585856114ba565b6007545f90815b83811015610c1957610b4361010080611cbc565b858583818110610b5557610b55611e7e565b9050602002013510610b795760405162461bcd60e51b815260040161054390611cd3565b610b9a858583818110610b8e57610b8e611e7e565b90506020020135611121565b15610bde5760405162461bcd60e51b8152602060048201526014602482015273151a5b1948185b1c9958591e4818db185a5b595960621b6044820152606401610543565b5f610be98284611e92565b610bf9906581474de4f526611cbc565b9050610c048161126e565b610c0e9085611e92565b935050600101610b2f565b506040516323b872dd60e01b8152336004820152306024820152604481018390527f00000000000000000000000000000000000000000000000000000000000000006001600160a01b0316906323b872dd906064016020604051808303815f875af1158015610c8a573d5f5f3e3d5ffd5b505050506040513d601f19601f82011682018060405250810190610cae9190611d36565b610cf15760405162461bcd60e51b81526020600482015260146024820152731554d110c81d1c985b9cd9995c8819985a5b195960621b6044820152606401610543565b5f5b83811015610dad57610d1d33868684818110610d1157610d11611e7e565b9050602002013561118f565b60078054905f610d2c83611d51565b90915550339050858583818110610d4557610d45611e7e565b905060200201357fb32a9a7450ff6ca778bf059b850af1be66768f645902c8754dc45e59976a2178610d946001600754610d7f9190611ea5565b610d8f906581474de4f526611cbc565b61126e565b60405190815260200160405180910390a3600101610cf3565b5050505050565b6060610dbf82611121565b610e025760405162461bcd60e51b8152602060048201526014602482015273151bdad95b88191bd95cc81b9bdd08195e1a5cdd60621b6044820152606401610543565b5f8281526009602052604081208054610e1a90611c70565b80601f0160208091040260200160405190810160405280929190818152602001828054610e4690611c70565b8015610e915780601f10610e6857610100808354040283529160200191610e91565b820191905f5260205f20905b815481529060010190602001808311610e7457829003601f168201915b505050505090505f81511115610ea75792915050565b6008610eb2846115e1565b604051602001610ec3929190611eb8565b604051602081830303815290604052915050919050565b33610ee4846109e5565b6001600160a01b031614610f2b5760405162461bcd60e51b815260206004820152600e60248201526d2737ba103a34b6329037bbb732b960911b6044820152606401610543565b5f838152600960205260409020610f43828483611dc4565b50827fd37dd45fce1a7200c768b92a380cab9b493a06cf86c903694c83f24eb4c76fce8383604051610f76929190611f38565b60405180910390a2505050565b6001600160a01b039182165f90815260056020908152604080832093909416825291909152205460ff1690565b610fb86111f0565b6001600160a01b038116610fe157604051631e4fbdf760e01b81525f6004820152602401610543565b6109378161121d565b5f818152600260205260408120546001600160a01b03168061044c57604051637e27328960e01b815260048101849052602401610543565b61095483838360016116e7565b5f828152600260205260408120546001600160a01b039081169083161561105b5761105b8184866117eb565b6001600160a01b03811615611095576110765f855f5f6116e7565b6001600160a01b0381165f90815260036020526040902080545f190190555b6001600160a01b038516156110c3576001600160a01b0385165f908152600360205260409020805460010190555b5f8481526002602052604080822080546001600160a01b0319166001600160a01b0389811691821790925591518793918516917fddf252ad1be2c89b69c2b068fc378daa952ba7f163c4a11628f55a4df523b3ef91a4949350505050565b6040516331a9108f60e11b8152600481018290525f903090636352211e90602401602060405180830381865afa92505050801561117b575060408051601f3d908101601f1916820190925261117891810190611f66565b60015b61118657505f919050565b50600192915050565b6001600160a01b0382166111b857604051633250574960e11b81525f6004820152602401610543565b5f6111c483835f61102f565b90506001600160a01b03811615610954576040516339e3563760e11b81525f6004820152602401610543565b6006546001600160a01b03163314610a455760405163118cdaa760e01b8152336004820152602401610543565b600680546001600160a01b038381166001600160a01b0319831681179093556040519116919082907f8be0079c531659141344cd1fd0a4f28419497f9722a3daafe3b4186f6b6457e0905f90a35050565b5f815f036112805750620f4240919050565b670de0b6b3a764000080836112958183611e92565b91506112a2836002611cbc565b6112ac8683611cbc565b6112b69190611d10565b90506112c28183611e92565b91506112cf836003611cbc565b6112d98683611cbc565b6112e39190611d10565b90506112ef8183611e92565b91506112fc836004611cbc565b6113068683611cbc565b6113109190611d10565b905061131c8183611e92565b9150611329836005611cbc565b6113338683611cbc565b61133d9190611d10565b90506113498183611e92565b9150611356836006611cbc565b6113608683611cbc565b61136a9190611d10565b90506113768183611e92565b9150611383836007611cbc565b61138d8683611cbc565b6113979190611d10565b90506113a38183611e92565b91506113b0836008611cbc565b6113ba8683611cbc565b6113c49190611d10565b90506113d08183611e92565b9150826113e083620f4240611cbc565b6113ea9190611d10565b95945050505050565b6001600160a01b03831661141c5760405163a9fbf51f60e01b81525f6004820152602401610543565b6001600160a01b03821661144e57604051630b61174360e31b81526001600160a01b0383166004820152602401610543565b6001600160a01b038381165f81815260056020908152604080832094871680845294825291829020805460ff191686151590811790915591519182527f17307eab39ab6107e8899845ad3d59bd9653f200f220920489ca2b5937696c31910160405180910390a3505050565b6001600160a01b0383163b15610dad57604051630a85bd0160e11b81526001600160a01b0384169063150b7a02906114fc908890889087908790600401611f81565b6020604051808303815f875af1925050508015611536575060408051601f3d908101601f1916820190925261153391810190611fbd565b60015b61159d573d808015611563576040519150601f19603f3d011682016040523d82523d5f602084013e611568565b606091505b5080515f0361159557604051633250574960e11b81526001600160a01b0385166004820152602401610543565b805160208201fd5b6001600160e01b03198116630a85bd0160e11b146115d957604051633250574960e11b81526001600160a01b0385166004820152602401610543565b505050505050565b6060815f036116075750506040805180820190915260018152600360fc1b602082015290565b815f5b8115611630578061161a81611d51565b91506116299050600a83611d10565b915061160a565b5f8167ffffffffffffffff81111561164a5761164a611a96565b6040519080825280601f01601f191660200182016040528015611674576020820181803683370190505b5090505b84156116df578161168881611fd8565b92506116979050600a86611d23565b6116a2906030611e92565b60f81b8183815181106116b7576116b7611e7e565b60200101906001600160f81b03191690815f1a9053506116d8600a86611d10565b9450611678565b949350505050565b80806116fb57506001600160a01b03821615155b156117bc575f61170a84610fea565b90506001600160a01b038316158015906117365750826001600160a01b0316816001600160a01b031614155b801561174957506117478184610f83565b155b156117725760405163a9fbf51f60e01b81526001600160a01b0384166004820152602401610543565b81156117ba5783856001600160a01b0316826001600160a01b03167f8c5be1e5ebec7d5bd14f71427d1e84f3dd0314c0f7b2291e5b200ac8c7c3b92560405160405180910390a45b505b50505f90815260046020526040902080546001600160a01b0319166001600160a01b0392909216919091179055565b6117f683838361184f565b610954576001600160a01b03831661182457604051637e27328960e01b815260048101829052602401610543565b60405163177e802f60e01b81526001600160a01b038316600482015260248101829052604401610543565b5f6001600160a01b038316158015906116df5750826001600160a01b0316846001600160a01b0316148061188857506118888484610f83565b806116df5750505f908152600460205260409020546001600160a01b03908116911614919050565b6001600160e01b031981168114610937575f5ffd5b5f602082840312156118d5575f5ffd5b8135610ac8816118b0565b5f81518084528060208401602086015e5f602082860101526020601f19601f83011685010191505092915050565b602081525f610ac860208301846118e0565b5f60208284031215611930575f5ffd5b5035919050565b6001600160a01b0381168114610937575f5ffd5b5f5f6040838503121561195c575f5ffd5b823561196781611937565b946020939093013593505050565b5f5f5f60608486031215611987575f5ffd5b833561199281611937565b925060208401356119a281611937565b929592945050506040919091013590565b5f602082840312156119c3575f5ffd5b8135610ac881611937565b5f5f83601f8401126119de575f5ffd5b50813567ffffffffffffffff8111156119f5575f5ffd5b602083019150836020828501011115611a0c575f5ffd5b9250929050565b5f5f60208385031215611a24575f5ffd5b823567ffffffffffffffff811115611a3a575f5ffd5b611a46858286016119ce565b90969095509350505050565b8015158114610937575f5ffd5b5f5f60408385031215611a70575f5ffd5b8235611a7b81611937565b91506020830135611a8b81611a52565b809150509250929050565b634e487b7160e01b5f52604160045260245ffd5b5f5f5f5f60808587031215611abd575f5ffd5b8435611ac881611937565b93506020850135611ad881611937565b925060408501359150606085013567ffffffffffffffff811115611afa575f5ffd5b8501601f81018713611b0a575f5ffd5b803567ffffffffffffffff811115611b2457611b24611a96565b604051601f8201601f19908116603f0116810167ffffffffffffffff81118282101715611b5357611b53611a96565b604052818152828201602001891015611b6a575f5ffd5b816020840160208301375f6020838301015280935050505092959194509250565b5f5f60208385031215611b9c575f5ffd5b823567ffffffffffffffff811115611bb2575f5ffd5b8301601f81018513611bc2575f5ffd5b803567ffffffffffffffff811115611bd8575f5ffd5b8560208260051b8401011115611bec575f5ffd5b6020919091019590945092505050565b5f5f5f60408486031215611c0e575f5ffd5b83359250602084013567ffffffffffffffff811115611c2b575f5ffd5b611c37868287016119ce565b9497909650939450505050565b5f5f60408385031215611c55575f5ffd5b8235611c6081611937565b91506020830135611a8b81611937565b600181811c90821680611c8457607f821691505b602082108103611ca257634e487b7160e01b5f52602260045260245ffd5b50919050565b634e487b7160e01b5f52601160045260245ffd5b808202811582820484141761044c5761044c611ca8565b6020808252600f908201526e125b9d985b1a59081d1a5b19481251608a1b604082015260600190565b634e487b7160e01b5f52601260045260245ffd5b5f82611d1e57611d1e611cfc565b500490565b5f82611d3157611d31611cfc565b500690565b5f60208284031215611d46575f5ffd5b8151610ac881611a52565b5f60018201611d6257611d62611ca8565b5060010190565b5f60208284031215611d79575f5ffd5b5051919050565b601f82111561095457805f5260205f20601f840160051c81016020851015611da55750805b601f840160051c820191505b81811015610dad575f8155600101611db1565b67ffffffffffffffff831115611ddc57611ddc611a96565b611df083611dea8354611c70565b83611d80565b5f601f841160018114611e21575f8515611e0a5750838201355b5f19600387901b1c1916600186901b178355610dad565b5f83815260208120601f198716915b82811015611e505786850135825560209485019460019092019101611e30565b5086821015611e6c575f1960f88860031b161c19848701351681555b505060018560011b0183555050505050565b634e487b7160e01b5f52603260045260245ffd5b8082018082111561044c5761044c611ca8565b8181038181111561044c5761044c611ca8565b5f5f8454611ec581611c70565b600182168015611edc5760018114611ef157611f1e565b60ff1983168652811515820286019350611f1e565b875f5260205f205f5b83811015611f1657815488820152600190910190602001611efa565b505081860193505b50505083518060208601835e5f9101908152949350505050565b60208152816020820152818360408301375f818301604090810191909152601f909201601f19160101919050565b5f60208284031215611f76575f5ffd5b8151610ac881611937565b6001600160a01b03858116825284166020820152604081018390526080606082018190525f90611fb3908301846118e0565b9695505050505050565b5f60208284031215611fcd575f5ffd5b8151610ac8816118b0565b5f81611fe657611fe6611ca8565b505f19019056fea2646970667358221220ecd93e801816f773655de961869152d8e9dd4d9fc77c536e1af938715491401764736f6c634300081c0033",
  "linkReferences": {},
  "deployedLinkReferences": {}
}